{
  "address": "0x3479f6916b710B26283b70915b68bd0309F124C1",
  "abi": [
    {
      "inputs": [
        {
          "internalType": "address",
          "name": "priceFeedAddress",
          "type": "address"
        },
        {
          "internalType": "string",
          "name": "lowSvg",
          "type": "string"
        },
        {
          "internalType": "string",
          "name": "highSvg",
          "type": "string"
        }
      ],
      "stateMutability": "nonpayable",
      "type": "constructor"
    },
    {
      "inputs": [],
      "name": "DynamicSvgNft_TokenNotFound",
      "type": "error"
    },
    {
      "anonymous": false,
      "inputs": [
        {
          "indexed": true,
          "internalType": "address",
          "name": "owner",
          "type": "address"
        },
        {
          "indexed": true,
          "internalType": "address",
          "name": "approved",
          "type": "address"
        },
        {
          "indexed": true,
          "internalType": "uint256",
          "name": "tokenId",
          "type": "uint256"
        }
      ],
      "name": "Approval",
      "type": "event"
    },
    {
      "anonymous": false,
      "inputs": [
        {
          "indexed": true,
          "internalType": "address",
          "name": "owner",
          "type": "address"
        },
        {
          "indexed": true,
          "internalType": "address",
          "name": "operator",
          "type": "address"
        },
        {
          "indexed": false,
          "internalType": "bool",
          "name": "approved",
          "type": "bool"
        }
      ],
      "name": "ApprovalForAll",
      "type": "event"
    },
    {
      "anonymous": false,
      "inputs": [
        {
          "indexed": true,
          "internalType": "uint256",
          "name": "tokenId",
          "type": "uint256"
        },
        {
          "indexed": false,
          "internalType": "int256",
          "name": "highValue",
          "type": "int256"
        }
      ],
      "name": "CreatedNFT",
      "type": "event"
    },
    {
      "anonymous": false,
      "inputs": [
        {
          "indexed": true,
          "internalType": "address",
          "name": "from",
          "type": "address"
        },
        {
          "indexed": true,
          "internalType": "address",
          "name": "to",
          "type": "address"
        },
        {
          "indexed": true,
          "internalType": "uint256",
          "name": "tokenId",
          "type": "uint256"
        }
      ],
      "name": "Transfer",
      "type": "event"
    },
    {
      "inputs": [
        {
          "internalType": "address",
          "name": "to",
          "type": "address"
        },
        {
          "internalType": "uint256",
          "name": "tokenId",
          "type": "uint256"
        }
      ],
      "name": "approve",
      "outputs": [],
      "stateMutability": "nonpayable",
      "type": "function"
    },
    {
      "inputs": [
        {
          "internalType": "address",
          "name": "owner",
          "type": "address"
        }
      ],
      "name": "balanceOf",
      "outputs": [
        {
          "internalType": "uint256",
          "name": "",
          "type": "uint256"
        }
      ],
      "stateMutability": "view",
      "type": "function"
    },
    {
      "inputs": [
        {
          "internalType": "uint256",
          "name": "tokenId",
          "type": "uint256"
        }
      ],
      "name": "getApproved",
      "outputs": [
        {
          "internalType": "address",
          "name": "",
          "type": "address"
        }
      ],
      "stateMutability": "view",
      "type": "function"
    },
    {
      "inputs": [],
      "name": "getHighImageUri",
      "outputs": [
        {
          "internalType": "string",
          "name": "",
          "type": "string"
        }
      ],
      "stateMutability": "view",
      "type": "function"
    },
    {
      "inputs": [],
      "name": "getLowImageUri",
      "outputs": [
        {
          "internalType": "string",
          "name": "",
          "type": "string"
        }
      ],
      "stateMutability": "view",
      "type": "function"
    },
    {
      "inputs": [],
      "name": "getPriceFeed",
      "outputs": [
        {
          "internalType": "contract AggregatorV3Interface",
          "name": "",
          "type": "address"
        }
      ],
      "stateMutability": "view",
      "type": "function"
    },
    {
      "inputs": [],
      "name": "getTokenCounter",
      "outputs": [
        {
          "internalType": "uint256",
          "name": "",
          "type": "uint256"
        }
      ],
      "stateMutability": "view",
      "type": "function"
    },
    {
      "inputs": [
        {
          "internalType": "address",
          "name": "owner",
          "type": "address"
        },
        {
          "internalType": "address",
          "name": "operator",
          "type": "address"
        }
      ],
      "name": "isApprovedForAll",
      "outputs": [
        {
          "internalType": "bool",
          "name": "",
          "type": "bool"
        }
      ],
      "stateMutability": "view",
      "type": "function"
    },
    {
      "inputs": [
        {
          "internalType": "int256",
          "name": "highValue",
          "type": "int256"
        }
      ],
      "name": "mintNft",
      "outputs": [],
      "stateMutability": "nonpayable",
      "type": "function"
    },
    {
      "inputs": [],
      "name": "name",
      "outputs": [
        {
          "internalType": "string",
          "name": "",
          "type": "string"
        }
      ],
      "stateMutability": "view",
      "type": "function"
    },
    {
      "inputs": [
        {
          "internalType": "uint256",
          "name": "tokenId",
          "type": "uint256"
        }
      ],
      "name": "ownerOf",
      "outputs": [
        {
          "internalType": "address",
          "name": "",
          "type": "address"
        }
      ],
      "stateMutability": "view",
      "type": "function"
    },
    {
      "inputs": [
        {
          "internalType": "address",
          "name": "from",
          "type": "address"
        },
        {
          "internalType": "address",
          "name": "to",
          "type": "address"
        },
        {
          "internalType": "uint256",
          "name": "tokenId",
          "type": "uint256"
        }
      ],
      "name": "safeTransferFrom",
      "outputs": [],
      "stateMutability": "nonpayable",
      "type": "function"
    },
    {
      "inputs": [
        {
          "internalType": "address",
          "name": "from",
          "type": "address"
        },
        {
          "internalType": "address",
          "name": "to",
          "type": "address"
        },
        {
          "internalType": "uint256",
          "name": "tokenId",
          "type": "uint256"
        },
        {
          "internalType": "bytes",
          "name": "data",
          "type": "bytes"
        }
      ],
      "name": "safeTransferFrom",
      "outputs": [],
      "stateMutability": "nonpayable",
      "type": "function"
    },
    {
      "inputs": [
        {
          "internalType": "address",
          "name": "operator",
          "type": "address"
        },
        {
          "internalType": "bool",
          "name": "approved",
          "type": "bool"
        }
      ],
      "name": "setApprovalForAll",
      "outputs": [],
      "stateMutability": "nonpayable",
      "type": "function"
    },
    {
      "inputs": [
        {
          "internalType": "bytes4",
          "name": "interfaceId",
          "type": "bytes4"
        }
      ],
      "name": "supportsInterface",
      "outputs": [
        {
          "internalType": "bool",
          "name": "",
          "type": "bool"
        }
      ],
      "stateMutability": "view",
      "type": "function"
    },
    {
      "inputs": [
        {
          "internalType": "string",
          "name": "svg",
          "type": "string"
        }
      ],
      "name": "svgToImageUri",
      "outputs": [
        {
          "internalType": "string",
          "name": "",
          "type": "string"
        }
      ],
      "stateMutability": "pure",
      "type": "function"
    },
    {
      "inputs": [],
      "name": "symbol",
      "outputs": [
        {
          "internalType": "string",
          "name": "",
          "type": "string"
        }
      ],
      "stateMutability": "view",
      "type": "function"
    },
    {
      "inputs": [
        {
          "internalType": "uint256",
          "name": "tokenId",
          "type": "uint256"
        }
      ],
      "name": "tokenURI",
      "outputs": [
        {
          "internalType": "string",
          "name": "",
          "type": "string"
        }
      ],
      "stateMutability": "view",
      "type": "function"
    },
    {
      "inputs": [
        {
          "internalType": "address",
          "name": "from",
          "type": "address"
        },
        {
          "internalType": "address",
          "name": "to",
          "type": "address"
        },
        {
          "internalType": "uint256",
          "name": "tokenId",
          "type": "uint256"
        }
      ],
      "name": "transferFrom",
      "outputs": [],
      "stateMutability": "nonpayable",
      "type": "function"
    }
  ],
  "transactionHash": "0xaa384eac47efb79105d8c76f375102cc517bcda25dc4c4f126a87fbd2591306b",
  "args": [
    "0xD4a33860578De61DBAbDc8BFdb98FD742fA7028e",
    "<?xml version=\"1.0\" standalone=\"no\"?>\n<svg width=\"1024px\" height=\"1024px\" viewBox=\"0 0 1024 1024\" xmlns=\"http://www.w3.org/2000/svg\">\n  <path fill=\"#333\" d=\"M512 64C264.6 64 64 264.6 64 512s200.6 448 448 448 448-200.6 448-448S759.4 64 512 64zm0 820c-205.4 0-372-166.6-372-372s166.6-372 372-372 372 166.6 372 372-166.6 372-372 372z\"/>\n  <path fill=\"#E6E6E6\" d=\"M512 140c-205.4 0-372 166.6-372 372s166.6 372 372 372 372-166.6 372-372-166.6-372-372-372zM288 421a48.01 48.01 0 0 1 96 0 48.01 48.01 0 0 1-96 0zm376 272h-48.1c-4.2 0-7.8-3.2-8.1-7.4C604 636.1 562.5 597 512 597s-92.1 39.1-95.8 88.6c-.3 4.2-3.9 7.4-8.1 7.4H360a8 8 0 0 1-8-8.4c4.4-84.3 74.5-151.6 160-151.6s155.6 67.3 160 151.6a8 8 0 0 1-8 8.4zm24-224a48.01 48.01 0 0 1 0-96 48.01 48.01 0 0 1 0 96z\"/>\n  <path fill=\"#333\" d=\"M288 421a48 48 0 1 0 96 0 48 48 0 1 0-96 0zm224 112c-85.5 0-155.6 67.3-160 151.6a8 8 0 0 0 8 8.4h48.1c4.2 0 7.8-3.2 8.1-7.4 3.7-49.5 45.3-88.6 95.8-88.6s92 39.1 95.8 88.6c.3 4.2 3.9 7.4 8.1 7.4H664a8 8 0 0 0 8-8.4C667.6 600.3 597.5 533 512 533zm128-112a48 48 0 1 0 96 0 48 48 0 1 0-96 0z\"/>\n</svg>",
    "<svg viewBox=\"0 0 200 200\" width=\"400\"  height=\"400\" xmlns=\"http://www.w3.org/2000/svg\">\n  <circle cx=\"100\" cy=\"100\" fill=\"yellow\" r=\"78\" stroke=\"black\" stroke-width=\"3\"/>\n  <g class=\"eyes\">\n    <circle cx=\"61\" cy=\"82\" r=\"12\"/>\n    <circle cx=\"127\" cy=\"82\" r=\"12\"/>\n  </g>\n  <path d=\"m136.81 116.53c.69 26.17-64.11 42-81.52-.73\" style=\"fill:none; stroke: black; stroke-width: 3;\"/>\n</svg>"
  ],
  "numDeployments": 2,
  "solcInputHash": "f6adb5678cbb7846defda99e9022d198",
  "bytecode": "0x60a06040523480156200001157600080fd5b5060405162003906380380620039068339818101604052810190620000379190620004e2565b6040518060400160405280600f81526020017f44796e616d696320535647204e465400000000000000000000000000000000008152506040518060400160405280600381526020017f44534e00000000000000000000000000000000000000000000000000000000008152508160009080519060200190620000bb9291906200039d565b508060019080519060200190620000d49291906200039d565b50505060006006819055508273ffffffffffffffffffffffffffffffffffffffff1660808173ffffffffffffffffffffffffffffffffffffffff1660601b8152505062000127826200017160201b60201c565b600790805190602001906200013e9291906200039d565b5062000150816200017160201b60201c565b60089080519060200190620001679291906200039d565b505050506200093a565b60606000620001ac836040516020016200018c9190620005b3565b6040516020818303038152906040526200020f60201b62000f071760201c565b90506040518060400160405280601a81526020017f646174613a696d6167652f7376672b786d6c3b6261736536342c00000000000081525081604051602001620001f8929190620005cc565b604051602081830303815290604052915050919050565b6060600082511415620002345760405180602001604052806000815250905062000398565b6000604051806060016040528060408152602001620038c6604091399050600060036002855162000266919062000669565b620002729190620006c6565b6004620002809190620006fe565b9050600060208262000293919062000669565b67ffffffffffffffff811115620002af57620002ae620008cc565b5b6040519080825280601f01601f191660200182016040528015620002e25781602001600182028036833780820191505090505b509050818152600183018586518101602084015b8183101562000353576003830192508251603f8160121c168501518253600182019150603f81600c1c168501518253600182019150603f8160061c168501518253600182019150603f8116850151825360018201915050620002f6565b60038951066001811462000370576002811462000381576200038c565b613d3d60f01b60028303526200038c565b603d60f81b60018303525b50505050508093505050505b919050565b828054620003ab90620007d3565b90600052602060002090601f016020900481019282620003cf57600085556200041b565b82601f10620003ea57805160ff19168380011785556200041b565b828001600101855582156200041b579182015b828111156200041a578251825591602001919060010190620003fd565b5b5090506200042a91906200042e565b5090565b5b80821115620004495760008160009055506001016200042f565b5090565b6000620004646200045e846200061d565b620005f4565b90508281526020810184848401111562000483576200048262000900565b5b620004908482856200079d565b509392505050565b600081519050620004a98162000920565b92915050565b600082601f830112620004c757620004c6620008fb565b5b8151620004d98482602086016200044d565b91505092915050565b600080600060608486031215620004fe57620004fd6200090a565b5b60006200050e8682870162000498565b935050602084015167ffffffffffffffff81111562000532576200053162000905565b5b6200054086828701620004af565b925050604084015167ffffffffffffffff81111562000564576200056362000905565b5b6200057286828701620004af565b9150509250925092565b6000620005898262000653565b6200059581856200065e565b9350620005a78185602086016200079d565b80840191505092915050565b6000620005c182846200057c565b915081905092915050565b6000620005da82856200057c565b9150620005e882846200057c565b91508190509392505050565b60006200060062000613565b90506200060e828262000809565b919050565b6000604051905090565b600067ffffffffffffffff8211156200063b576200063a620008cc565b5b62000646826200090f565b9050602081019050919050565b600081519050919050565b600081905092915050565b6000620006768262000793565b9150620006838362000793565b9250827fffffffffffffffffffffffffffffffffffffffffffffffffffffffffffffffff03821115620006bb57620006ba6200083f565b5b828201905092915050565b6000620006d38262000793565b9150620006e08362000793565b925082620006f357620006f26200086e565b5b828204905092915050565b60006200070b8262000793565b9150620007188362000793565b9250817fffffffffffffffffffffffffffffffffffffffffffffffffffffffffffffffff04831182151516156200075457620007536200083f565b5b828202905092915050565b60006200076c8262000773565b9050919050565b600073ffffffffffffffffffffffffffffffffffffffff82169050919050565b6000819050919050565b60005b83811015620007bd578082015181840152602081019050620007a0565b83811115620007cd576000848401525b50505050565b60006002820490506001821680620007ec57607f821691505b602082108114156200080357620008026200089d565b5b50919050565b62000814826200090f565b810181811067ffffffffffffffff82111715620008365762000835620008cc565b5b80604052505050565b7f4e487b7100000000000000000000000000000000000000000000000000000000600052601160045260246000fd5b7f4e487b7100000000000000000000000000000000000000000000000000000000600052601260045260246000fd5b7f4e487b7100000000000000000000000000000000000000000000000000000000600052602260045260246000fd5b7f4e487b7100000000000000000000000000000000000000000000000000000000600052604160045260246000fd5b600080fd5b600080fd5b600080fd5b600080fd5b6000601f19601f8301169050919050565b6200092b816200075f565b81146200093757600080fd5b50565b60805160601c612f666200096060003960008181610b570152610c380152612f666000f3fe608060405234801561001057600080fd5b50600436106101215760003560e01c806367e5366c116100ad5780639e87a5cd116100715780639e87a5cd1461031c578063a22cb4651461033a578063b88d4fde14610356578063c87b56dd14610372578063e985e9c5146103a257610121565b806367e5366c146102745780636e02007d1461029257806370a08231146102b05780638fb7e271146102e057806395d89b41146102fe57610121565b80631e930812116100f45780631e930812146101c057806323b872dd146101dc5780633207d93c146101f857806342842e0e146102285780636352211e1461024457610121565b806301ffc9a71461012657806306fdde0314610156578063081812fc14610174578063095ea7b3146101a4575b600080fd5b610140600480360381019061013b9190611edb565b6103d2565b60405161014d9190612440565b60405180910390f35b61015e6104b4565b60405161016b9190612491565b60405180910390f35b61018e60048036038101906101899190611fab565b610546565b60405161019b91906123d9565b60405180910390f35b6101be60048036038101906101b99190611e9b565b61058c565b005b6101da60048036038101906101d59190611f35565b6106a4565b005b6101f660048036038101906101f19190611d85565b61071c565b005b610212600480360381019061020d9190611f62565b61077c565b60405161021f9190612491565b60405180910390f35b610242600480360381019061023d9190611d85565b610809565b005b61025e60048036038101906102599190611fab565b610829565b60405161026b91906123d9565b60405180910390f35b61027c6108db565b6040516102899190612491565b60405180910390f35b61029a61096d565b6040516102a79190612613565b60405180910390f35b6102ca60048036038101906102c59190611d18565b610977565b6040516102d79190612613565b60405180910390f35b6102e8610a2f565b6040516102f59190612491565b60405180910390f35b610306610ac1565b6040516103139190612491565b60405180910390f35b610324610b53565b604051610331919061245b565b60405180910390f35b610354600480360381019061034f9190611e5b565b610b7b565b005b610370600480360381019061036b9190611dd8565b610b91565b005b61038c60048036038101906103879190611fab565b610bf3565b6040516103999190612491565b60405180910390f35b6103bc60048036038101906103b79190611d45565b610e73565b6040516103c99190612440565b60405180910390f35b60007f80ac58cd000000000000000000000000000000000000000000000000000000007bffffffffffffffffffffffffffffffffffffffffffffffffffffffff1916827bffffffffffffffffffffffffffffffffffffffffffffffffffffffff1916148061049d57507f5b5e139f000000000000000000000000000000000000000000000000000000007bffffffffffffffffffffffffffffffffffffffffffffffffffffffff1916827bffffffffffffffffffffffffffffffffffffffffffffffffffffffff1916145b806104ad57506104ac82611080565b5b9050919050565b6060600080546104c390612919565b80601f01602080910402602001604051908101604052809291908181526020018280546104ef90612919565b801561053c5780601f106105115761010080835404028352916020019161053c565b820191906000526020600020905b81548152906001019060200180831161051f57829003601f168201915b5050505050905090565b6000610551826110ea565b6004600083815260200190815260200160002060009054906101000a900473ffffffffffffffffffffffffffffffffffffffff169050919050565b600061059782610829565b90508073ffffffffffffffffffffffffffffffffffffffff168373ffffffffffffffffffffffffffffffffffffffff161415610608576040517f08c379a00000000000000000000000000000000000000000000000000000000081526004016105ff906125d3565b60405180910390fd5b8073ffffffffffffffffffffffffffffffffffffffff16610627611135565b73ffffffffffffffffffffffffffffffffffffffff161480610656575061065581610650611135565b610e73565b5b610695576040517f08c379a000000000000000000000000000000000000000000000000000000000815260040161068c90612573565b60405180910390fd5b61069f838361113d565b505050565b80600960006006548152602001908152602001600020819055506106ca336006546111f6565b6006547f882d3b5a729a8bb95cf6c0083c99b42ecd9637123d4425bd7b768877fd8af8b0826040516106fc9190612476565b60405180910390a2600160065461071391906126f8565b60068190555050565b61072d610727611135565b82611214565b61076c576040517f08c379a0000000000000000000000000000000000000000000000000000000008152600401610763906125f3565b60405180910390fd5b6107778383836112a9565b505050565b606060006107a883604051602001610794919061234e565b604051602081830303815290604052610f07565b90506040518060400160405280601a81526020017f646174613a696d6167652f7376672b786d6c3b6261736536342c000000000000815250816040516020016107f2929190612365565b604051602081830303815290604052915050919050565b61082483838360405180602001604052806000815250610b91565b505050565b6000806002600084815260200190815260200160002060009054906101000a900473ffffffffffffffffffffffffffffffffffffffff169050600073ffffffffffffffffffffffffffffffffffffffff168173ffffffffffffffffffffffffffffffffffffffff1614156108d2576040517f08c379a00000000000000000000000000000000000000000000000000000000081526004016108c9906125b3565b60405180910390fd5b80915050919050565b6060600880546108ea90612919565b80601f016020809104026020016040519081016040528092919081815260200182805461091690612919565b80156109635780601f1061093857610100808354040283529160200191610963565b820191906000526020600020905b81548152906001019060200180831161094657829003601f168201915b5050505050905090565b6000600654905090565b60008073ffffffffffffffffffffffffffffffffffffffff168273ffffffffffffffffffffffffffffffffffffffff1614156109e8576040517f08c379a00000000000000000000000000000000000000000000000000000000081526004016109df90612553565b60405180910390fd5b600360008373ffffffffffffffffffffffffffffffffffffffff1673ffffffffffffffffffffffffffffffffffffffff168152602001908152602001600020549050919050565b606060078054610a3e90612919565b80601f0160208091040260200160405190810160405280929190818152602001828054610a6a90612919565b8015610ab75780601f10610a8c57610100808354040283529160200191610ab7565b820191906000526020600020905b815481529060010190602001808311610a9a57829003601f168201915b5050505050905090565b606060018054610ad090612919565b80601f0160208091040260200160405190810160405280929190818152602001828054610afc90612919565b8015610b495780601f10610b1e57610100808354040283529160200191610b49565b820191906000526020600020905b815481529060010190602001808311610b2c57829003601f168201915b5050505050905090565b60007f0000000000000000000000000000000000000000000000000000000000000000905090565b610b8d610b86611135565b8383611510565b5050565b610ba2610b9c611135565b83611214565b610be1576040517f08c379a0000000000000000000000000000000000000000000000000000000008152600401610bd8906125f3565b60405180910390fd5b610bed8484848461167d565b50505050565b6060610bfe826116d9565b610c34576040517fd7c0e82900000000000000000000000000000000000000000000000000000000815260040160405180910390fd5b60007f000000000000000000000000000000000000000000000000000000000000000073ffffffffffffffffffffffffffffffffffffffff1663feaf968c6040518163ffffffff1660e01b815260040160a06040518083038186803b158015610c9c57600080fd5b505afa158015610cb0573d6000803e3d6000fd5b505050506040513d601f19601f82011682018060405250810190610cd49190611fd8565b505050915050600060078054610ce990612919565b80601f0160208091040260200160405190810160405280929190818152602001828054610d1590612919565b8015610d625780601f10610d3757610100808354040283529160200191610d62565b820191906000526020600020905b815481529060010190602001808311610d4557829003601f168201915b5050505050905060096000858152602001908152602001600020548212610e115760088054610d9090612919565b80601f0160208091040260200160405190810160405280929190818152602001828054610dbc90612919565b8015610e095780601f10610dde57610100808354040283529160200191610e09565b820191906000526020600020905b815481529060010190602001808311610dec57829003601f168201915b505050505090505b610e19611745565b610e4a610e246104b4565b83604051602001610e36929190612389565b604051602081830303815290604052610f07565b604051602001610e5b929190612365565b60405160208183030381529060405292505050919050565b6000600560008473ffffffffffffffffffffffffffffffffffffffff1673ffffffffffffffffffffffffffffffffffffffff16815260200190815260200160002060008373ffffffffffffffffffffffffffffffffffffffff1673ffffffffffffffffffffffffffffffffffffffff16815260200190815260200160002060009054906101000a900460ff16905092915050565b6060600082511415610f2a5760405180602001604052806000815250905061107b565b6000604051806060016040528060408152602001612ef16040913990506000600360028551610f5991906126f8565b610f63919061274e565b6004610f6f919061277f565b90506000602082610f8091906126f8565b67ffffffffffffffff811115610f9957610f98612a09565b5b6040519080825280601f01601f191660200182016040528015610fcb5781602001600182028036833780820191505090505b509050818152600183018586518101602084015b8183101561103a576003830192508251603f8160121c168501518253600182019150603f81600c1c168501518253600182019150603f8160061c168501518253600182019150603f8116850151825360018201915050610fdf565b60038951066001811461105457600281146110645761106f565b613d3d60f01b600283035261106f565b603d60f81b60018303525b50505050508093505050505b919050565b60007f01ffc9a7000000000000000000000000000000000000000000000000000000007bffffffffffffffffffffffffffffffffffffffffffffffffffffffff1916827bffffffffffffffffffffffffffffffffffffffffffffffffffffffff1916149050919050565b6110f3816116d9565b611132576040517f08c379a0000000000000000000000000000000000000000000000000000000008152600401611129906125b3565b60405180910390fd5b50565b600033905090565b816004600083815260200190815260200160002060006101000a81548173ffffffffffffffffffffffffffffffffffffffff021916908373ffffffffffffffffffffffffffffffffffffffff160217905550808273ffffffffffffffffffffffffffffffffffffffff166111b083610829565b73ffffffffffffffffffffffffffffffffffffffff167f8c5be1e5ebec7d5bd14f71427d1e84f3dd0314c0f7b2291e5b200ac8c7c3b92560405160405180910390a45050565b611210828260405180602001604052806000815250611782565b5050565b60008061122083610829565b90508073ffffffffffffffffffffffffffffffffffffffff168473ffffffffffffffffffffffffffffffffffffffff16148061126257506112618185610e73565b5b806112a057508373ffffffffffffffffffffffffffffffffffffffff1661128884610546565b73ffffffffffffffffffffffffffffffffffffffff16145b91505092915050565b8273ffffffffffffffffffffffffffffffffffffffff166112c982610829565b73ffffffffffffffffffffffffffffffffffffffff161461131f576040517f08c379a0000000000000000000000000000000000000000000000000000000008152600401611316906124d3565b60405180910390fd5b600073ffffffffffffffffffffffffffffffffffffffff168273ffffffffffffffffffffffffffffffffffffffff16141561138f576040517f08c379a000000000000000000000000000000000000000000000000000000000815260040161138690612513565b60405180910390fd5b61139a8383836117dd565b6113a560008261113d565b6001600360008573ffffffffffffffffffffffffffffffffffffffff1673ffffffffffffffffffffffffffffffffffffffff16815260200190815260200160002060008282546113f591906127d9565b925050819055506001600360008473ffffffffffffffffffffffffffffffffffffffff1673ffffffffffffffffffffffffffffffffffffffff168152602001908152602001600020600082825461144c91906126f8565b92505081905550816002600083815260200190815260200160002060006101000a81548173ffffffffffffffffffffffffffffffffffffffff021916908373ffffffffffffffffffffffffffffffffffffffff160217905550808273ffffffffffffffffffffffffffffffffffffffff168473ffffffffffffffffffffffffffffffffffffffff167fddf252ad1be2c89b69c2b068fc378daa952ba7f163c4a11628f55a4df523b3ef60405160405180910390a461150b8383836117e2565b505050565b8173ffffffffffffffffffffffffffffffffffffffff168373ffffffffffffffffffffffffffffffffffffffff16141561157f576040517f08c379a000000000000000000000000000000000000000000000000000000000815260040161157690612533565b60405180910390fd5b80600560008573ffffffffffffffffffffffffffffffffffffffff1673ffffffffffffffffffffffffffffffffffffffff16815260200190815260200160002060008473ffffffffffffffffffffffffffffffffffffffff1673ffffffffffffffffffffffffffffffffffffffff16815260200190815260200160002060006101000a81548160ff0219169083151502179055508173ffffffffffffffffffffffffffffffffffffffff168373ffffffffffffffffffffffffffffffffffffffff167f17307eab39ab6107e8899845ad3d59bd9653f200f220920489ca2b5937696c31836040516116709190612440565b60405180910390a3505050565b6116888484846112a9565b611694848484846117e7565b6116d3576040517f08c379a00000000000000000000000000000000000000000000000000000000081526004016116ca906124b3565b60405180910390fd5b50505050565b60008073ffffffffffffffffffffffffffffffffffffffff166002600084815260200190815260200160002060009054906101000a900473ffffffffffffffffffffffffffffffffffffffff1673ffffffffffffffffffffffffffffffffffffffff1614159050919050565b60606040518060400160405280601d81526020017f646174613a6170706c69636174696f6e2f6a736f6e3b6261736536342c000000815250905090565b61178c838361197e565b61179960008484846117e7565b6117d8576040517f08c379a00000000000000000000000000000000000000000000000000000000081526004016117cf906124b3565b60405180910390fd5b505050565b505050565b505050565b60006118088473ffffffffffffffffffffffffffffffffffffffff16611b58565b15611971578373ffffffffffffffffffffffffffffffffffffffff1663150b7a02611831611135565b8786866040518563ffffffff1660e01b815260040161185394939291906123f4565b602060405180830381600087803b15801561186d57600080fd5b505af192505050801561189e57506040513d601f19601f8201168201806040525081019061189b9190611f08565b60015b611921573d80600081146118ce576040519150601f19603f3d011682016040523d82523d6000602084013e6118d3565b606091505b50600081511415611919576040517f08c379a0000000000000000000000000000000000000000000000000000000008152600401611910906124b3565b60405180910390fd5b805181602001fd5b63150b7a0260e01b7bffffffffffffffffffffffffffffffffffffffffffffffffffffffff1916817bffffffffffffffffffffffffffffffffffffffffffffffffffffffff191614915050611976565b600190505b949350505050565b600073ffffffffffffffffffffffffffffffffffffffff168273ffffffffffffffffffffffffffffffffffffffff1614156119ee576040517f08c379a00000000000000000000000000000000000000000000000000000000081526004016119e590612593565b60405180910390fd5b6119f7816116d9565b15611a37576040517f08c379a0000000000000000000000000000000000000000000000000000000008152600401611a2e906124f3565b60405180910390fd5b611a43600083836117dd565b6001600360008473ffffffffffffffffffffffffffffffffffffffff1673ffffffffffffffffffffffffffffffffffffffff1681526020019081526020016000206000828254611a9391906126f8565b92505081905550816002600083815260200190815260200160002060006101000a81548173ffffffffffffffffffffffffffffffffffffffff021916908373ffffffffffffffffffffffffffffffffffffffff160217905550808273ffffffffffffffffffffffffffffffffffffffff16600073ffffffffffffffffffffffffffffffffffffffff167fddf252ad1be2c89b69c2b068fc378daa952ba7f163c4a11628f55a4df523b3ef60405160405180910390a4611b54600083836117e2565b5050565b6000808273ffffffffffffffffffffffffffffffffffffffff163b119050919050565b6000611b8e611b8984612653565b61262e565b905082815260208101848484011115611baa57611ba9612a3d565b5b611bb58482856128d7565b509392505050565b6000611bd0611bcb84612684565b61262e565b905082815260208101848484011115611bec57611beb612a3d565b5b611bf78482856128d7565b509392505050565b600081359050611c0e81612e66565b92915050565b600081359050611c2381612e7d565b92915050565b600081359050611c3881612e94565b92915050565b600081519050611c4d81612e94565b92915050565b600082601f830112611c6857611c67612a38565b5b8135611c78848260208601611b7b565b91505092915050565b600081359050611c9081612eab565b92915050565b600081519050611ca581612eab565b92915050565b600082601f830112611cc057611cbf612a38565b5b8135611cd0848260208601611bbd565b91505092915050565b600081359050611ce881612ec2565b92915050565b600081519050611cfd81612ec2565b92915050565b600081519050611d1281612ed9565b92915050565b600060208284031215611d2e57611d2d612a47565b5b6000611d3c84828501611bff565b91505092915050565b60008060408385031215611d5c57611d5b612a47565b5b6000611d6a85828601611bff565b9250506020611d7b85828601611bff565b9150509250929050565b600080600060608486031215611d9e57611d9d612a47565b5b6000611dac86828701611bff565b9350506020611dbd86828701611bff565b9250506040611dce86828701611cd9565b9150509250925092565b60008060008060808587031215611df257611df1612a47565b5b6000611e0087828801611bff565b9450506020611e1187828801611bff565b9350506040611e2287828801611cd9565b925050606085013567ffffffffffffffff811115611e4357611e42612a42565b5b611e4f87828801611c53565b91505092959194509250565b60008060408385031215611e7257611e71612a47565b5b6000611e8085828601611bff565b9250506020611e9185828601611c14565b9150509250929050565b60008060408385031215611eb257611eb1612a47565b5b6000611ec085828601611bff565b9250506020611ed185828601611cd9565b9150509250929050565b600060208284031215611ef157611ef0612a47565b5b6000611eff84828501611c29565b91505092915050565b600060208284031215611f1e57611f1d612a47565b5b6000611f2c84828501611c3e565b91505092915050565b600060208284031215611f4b57611f4a612a47565b5b6000611f5984828501611c81565b91505092915050565b600060208284031215611f7857611f77612a47565b5b600082013567ffffffffffffffff811115611f9657611f95612a42565b5b611fa284828501611cab565b91505092915050565b600060208284031215611fc157611fc0612a47565b5b6000611fcf84828501611cd9565b91505092915050565b600080600080600060a08688031215611ff457611ff3612a47565b5b600061200288828901611d03565b955050602061201388828901611c96565b945050604061202488828901611cee565b935050606061203588828901611cee565b925050608061204688828901611d03565b9150509295509295909350565b61205c8161280d565b82525050565b61206b8161281f565b82525050565b600061207c826126b5565b61208681856126cb565b93506120968185602086016128e6565b61209f81612a4c565b840191505092915050565b6120b3816128a1565b82525050565b6120c281612857565b82525050565b60006120d3826126c0565b6120dd81856126dc565b93506120ed8185602086016128e6565b6120f681612a4c565b840191505092915050565b600061210c826126c0565b61211681856126ed565b93506121268185602086016128e6565b80840191505092915050565b600061213f6009836126ed565b915061214a82612a5d565b600982019050919050565b60006121626032836126dc565b915061216d82612a86565b604082019050919050565b60006121856025836126dc565b915061219082612ad5565b604082019050919050565b60006121a8601c836126dc565b91506121b382612b24565b602082019050919050565b60006121cb6024836126dc565b91506121d682612b4d565b604082019050919050565b60006121ee6019836126dc565b91506121f982612b9c565b602082019050919050565b60006122116029836126dc565b915061221c82612bc5565b604082019050919050565b60006122346044836126ed565b915061223f82612c14565b604482019050919050565b60006122576002836126ed565b915061226282612c89565b600282019050919050565b600061227a603e836126dc565b915061228582612cb2565b604082019050919050565b600061229d6020836126dc565b91506122a882612d01565b602082019050919050565b60006122c06018836126dc565b91506122cb82612d2a565b602082019050919050565b60006122e36021836126dc565b91506122ee82612d53565b604082019050919050565b6000612306602e836126dc565b915061231182612da2565b604082019050919050565b60006123296043836126ed565b915061233482612df1565b604382019050919050565b61234881612881565b82525050565b600061235a8284612101565b915081905092915050565b60006123718285612101565b915061237d8284612101565b91508190509392505050565b600061239482612132565b91506123a08285612101565b91506123ab82612227565b91506123b68261231c565b91506123c28284612101565b91506123cd8261224a565b91508190509392505050565b60006020820190506123ee6000830184612053565b92915050565b60006080820190506124096000830187612053565b6124166020830186612053565b612423604083018561233f565b81810360608301526124358184612071565b905095945050505050565b60006020820190506124556000830184612062565b92915050565b600060208201905061247060008301846120aa565b92915050565b600060208201905061248b60008301846120b9565b92915050565b600060208201905081810360008301526124ab81846120c8565b905092915050565b600060208201905081810360008301526124cc81612155565b9050919050565b600060208201905081810360008301526124ec81612178565b9050919050565b6000602082019050818103600083015261250c8161219b565b9050919050565b6000602082019050818103600083015261252c816121be565b9050919050565b6000602082019050818103600083015261254c816121e1565b9050919050565b6000602082019050818103600083015261256c81612204565b9050919050565b6000602082019050818103600083015261258c8161226d565b9050919050565b600060208201905081810360008301526125ac81612290565b9050919050565b600060208201905081810360008301526125cc816122b3565b9050919050565b600060208201905081810360008301526125ec816122d6565b9050919050565b6000602082019050818103600083015261260c816122f9565b9050919050565b6000602082019050612628600083018461233f565b92915050565b6000612638612649565b9050612644828261294b565b919050565b6000604051905090565b600067ffffffffffffffff82111561266e5761266d612a09565b5b61267782612a4c565b9050602081019050919050565b600067ffffffffffffffff82111561269f5761269e612a09565b5b6126a882612a4c565b9050602081019050919050565b600081519050919050565b600081519050919050565b600082825260208201905092915050565b600082825260208201905092915050565b600081905092915050565b600061270382612881565b915061270e83612881565b9250827fffffffffffffffffffffffffffffffffffffffffffffffffffffffffffffffff038211156127435761274261297c565b5b828201905092915050565b600061275982612881565b915061276483612881565b925082612774576127736129ab565b5b828204905092915050565b600061278a82612881565b915061279583612881565b9250817fffffffffffffffffffffffffffffffffffffffffffffffffffffffffffffffff04831182151516156127ce576127cd61297c565b5b828202905092915050565b60006127e482612881565b91506127ef83612881565b9250828210156128025761280161297c565b5b828203905092915050565b600061281882612861565b9050919050565b60008115159050919050565b60007fffffffff0000000000000000000000000000000000000000000000000000000082169050919050565b6000819050919050565b600073ffffffffffffffffffffffffffffffffffffffff82169050919050565b6000819050919050565b600069ffffffffffffffffffff82169050919050565b60006128ac826128b3565b9050919050565b60006128be826128c5565b9050919050565b60006128d082612861565b9050919050565b82818337600083830152505050565b60005b838110156129045780820151818401526020810190506128e9565b83811115612913576000848401525b50505050565b6000600282049050600182168061293157607f821691505b60208210811415612945576129446129da565b5b50919050565b61295482612a4c565b810181811067ffffffffffffffff8211171561297357612972612a09565b5b80604052505050565b7f4e487b7100000000000000000000000000000000000000000000000000000000600052601160045260246000fd5b7f4e487b7100000000000000000000000000000000000000000000000000000000600052601260045260246000fd5b7f4e487b7100000000000000000000000000000000000000000000000000000000600052602260045260246000fd5b7f4e487b7100000000000000000000000000000000000000000000000000000000600052604160045260246000fd5b600080fd5b600080fd5b600080fd5b600080fd5b6000601f19601f8301169050919050565b7f7b226e616d65223a220000000000000000000000000000000000000000000000600082015250565b7f4552433732313a207472616e7366657220746f206e6f6e20455243373231526560008201527f63656976657220696d706c656d656e7465720000000000000000000000000000602082015250565b7f4552433732313a207472616e736665722066726f6d20696e636f72726563742060008201527f6f776e6572000000000000000000000000000000000000000000000000000000602082015250565b7f4552433732313a20746f6b656e20616c7265616479206d696e74656400000000600082015250565b7f4552433732313a207472616e7366657220746f20746865207a65726f2061646460008201527f7265737300000000000000000000000000000000000000000000000000000000602082015250565b7f4552433732313a20617070726f766520746f2063616c6c657200000000000000600082015250565b7f4552433732313a2061646472657373207a65726f206973206e6f74206120766160008201527f6c6964206f776e65720000000000000000000000000000000000000000000000602082015250565b7f222c20226465736372697074696f6e223a22416e204e4654207468617420636860008201527f616e676573206261736564206f6e2074686520436861696e6c696e6b2046656560208201527f64222c2000000000000000000000000000000000000000000000000000000000604082015250565b7f227d000000000000000000000000000000000000000000000000000000000000600082015250565b7f4552433732313a20617070726f76652063616c6c6572206973206e6f7420746f60008201527f6b656e206f776e6572206e6f7220617070726f76656420666f7220616c6c0000602082015250565b7f4552433732313a206d696e7420746f20746865207a65726f2061646472657373600082015250565b7f4552433732313a20696e76616c696420746f6b656e2049440000000000000000600082015250565b7f4552433732313a20617070726f76616c20746f2063757272656e74206f776e6560008201527f7200000000000000000000000000000000000000000000000000000000000000602082015250565b7f4552433732313a2063616c6c6572206973206e6f7420746f6b656e206f776e6560008201527f72206e6f7220617070726f766564000000000000000000000000000000000000602082015250565b7f2261747472696275746573223a205b7b2274726169745f74797065223a20226360008201527f6f6f6c6e657373222c202276616c7565223a203130307d5d2c2022696d61676560208201527f223a220000000000000000000000000000000000000000000000000000000000604082015250565b612e6f8161280d565b8114612e7a57600080fd5b50565b612e868161281f565b8114612e9157600080fd5b50565b612e9d8161282b565b8114612ea857600080fd5b50565b612eb481612857565b8114612ebf57600080fd5b50565b612ecb81612881565b8114612ed657600080fd5b50565b612ee28161288b565b8114612eed57600080fd5b5056fe4142434445464748494a4b4c4d4e4f505152535455565758595a6162636465666768696a6b6c6d6e6f707172737475767778797a303132333435363738392b2fa2646970667358221220f76c0b080911a22964bd6da8f397b31ff21803f8b9949b7838b7290764b7e65164736f6c634300080700334142434445464748494a4b4c4d4e4f505152535455565758595a6162636465666768696a6b6c6d6e6f707172737475767778797a303132333435363738392b2f",
  "devdoc": {
    "kind": "dev",
    "methods": {
      "approve(address,uint256)": {
        "details": "See {IERC721-approve}."
      },
      "balanceOf(address)": {
        "details": "See {IERC721-balanceOf}."
      },
      "getApproved(uint256)": {
        "details": "See {IERC721-getApproved}."
      },
      "isApprovedForAll(address,address)": {
        "details": "See {IERC721-isApprovedForAll}."
      },
      "name()": {
        "details": "See {IERC721Metadata-name}."
      },
      "ownerOf(uint256)": {
        "details": "See {IERC721-ownerOf}."
      },
      "safeTransferFrom(address,address,uint256)": {
        "details": "See {IERC721-safeTransferFrom}."
      },
      "safeTransferFrom(address,address,uint256,bytes)": {
        "details": "See {IERC721-safeTransferFrom}."
      },
      "setApprovalForAll(address,bool)": {
        "details": "See {IERC721-setApprovalForAll}."
      },
      "supportsInterface(bytes4)": {
        "details": "See {IERC165-supportsInterface}."
      },
      "symbol()": {
        "details": "See {IERC721Metadata-symbol}."
      },
      "tokenURI(uint256)": {
        "details": "See {IERC721Metadata-tokenURI}."
      },
      "transferFrom(address,address,uint256)": {
        "details": "See {IERC721-transferFrom}."
      }
    },
    "version": 1
  },
  "userdoc": {
    "kind": "user",
    "methods": {},
    "version": 1
  },
  "storageLayout": {
    "storage": [
      {
        "astId": 1005,
        "contract": "contracts/DynamicSvgNft.sol:DynamicSvgNft",
        "label": "_name",
        "offset": 0,
        "slot": "0",
        "type": "t_string_storage"
      },
      {
        "astId": 1007,
        "contract": "contracts/DynamicSvgNft.sol:DynamicSvgNft",
        "label": "_symbol",
        "offset": 0,
        "slot": "1",
        "type": "t_string_storage"
      },
      {
        "astId": 1011,
        "contract": "contracts/DynamicSvgNft.sol:DynamicSvgNft",
        "label": "_owners",
        "offset": 0,
        "slot": "2",
        "type": "t_mapping(t_uint256,t_address)"
      },
      {
        "astId": 1015,
        "contract": "contracts/DynamicSvgNft.sol:DynamicSvgNft",
        "label": "_balances",
        "offset": 0,
        "slot": "3",
        "type": "t_mapping(t_address,t_uint256)"
      },
      {
        "astId": 1019,
        "contract": "contracts/DynamicSvgNft.sol:DynamicSvgNft",
        "label": "_tokenApprovals",
        "offset": 0,
        "slot": "4",
        "type": "t_mapping(t_uint256,t_address)"
      },
      {
        "astId": 1025,
        "contract": "contracts/DynamicSvgNft.sol:DynamicSvgNft",
        "label": "_operatorApprovals",
        "offset": 0,
        "slot": "5",
        "type": "t_mapping(t_address,t_mapping(t_address,t_bool))"
      },
      {
        "astId": 2899,
        "contract": "contracts/DynamicSvgNft.sol:DynamicSvgNft",
        "label": "s_tokenCounter",
        "offset": 0,
        "slot": "6",
        "type": "t_uint256"
      },
      {
        "astId": 2901,
        "contract": "contracts/DynamicSvgNft.sol:DynamicSvgNft",
        "label": "s_lowImageURI",
        "offset": 0,
        "slot": "7",
        "type": "t_string_storage"
      },
      {
        "astId": 2903,
        "contract": "contracts/DynamicSvgNft.sol:DynamicSvgNft",
        "label": "s_highImageURI",
        "offset": 0,
        "slot": "8",
        "type": "t_string_storage"
      },
      {
        "astId": 2910,
        "contract": "contracts/DynamicSvgNft.sol:DynamicSvgNft",
        "label": "s_tokenIdToHighValues",
        "offset": 0,
        "slot": "9",
        "type": "t_mapping(t_uint256,t_int256)"
      }
    ],
    "types": {
      "t_address": {
        "encoding": "inplace",
        "label": "address",
        "numberOfBytes": "20"
      },
      "t_bool": {
        "encoding": "inplace",
        "label": "bool",
        "numberOfBytes": "1"
      },
      "t_int256": {
        "encoding": "inplace",
        "label": "int256",
        "numberOfBytes": "32"
      },
      "t_mapping(t_address,t_bool)": {
        "encoding": "mapping",
        "key": "t_address",
        "label": "mapping(address => bool)",
        "numberOfBytes": "32",
        "value": "t_bool"
      },
      "t_mapping(t_address,t_mapping(t_address,t_bool))": {
        "encoding": "mapping",
        "key": "t_address",
        "label": "mapping(address => mapping(address => bool))",
        "numberOfBytes": "32",
        "value": "t_mapping(t_address,t_bool)"
      },
      "t_mapping(t_address,t_uint256)": {
        "encoding": "mapping",
        "key": "t_address",
        "label": "mapping(address => uint256)",
        "numberOfBytes": "32",
        "value": "t_uint256"
      },
      "t_mapping(t_uint256,t_address)": {
        "encoding": "mapping",
        "key": "t_uint256",
        "label": "mapping(uint256 => address)",
        "numberOfBytes": "32",
        "value": "t_address"
      },
      "t_mapping(t_uint256,t_int256)": {
        "encoding": "mapping",
        "key": "t_uint256",
        "label": "mapping(uint256 => int256)",
        "numberOfBytes": "32",
        "value": "t_int256"
      },
      "t_string_storage": {
        "encoding": "bytes",
        "label": "string",
        "numberOfBytes": "32"
      },
      "t_uint256": {
        "encoding": "inplace",
        "label": "uint256",
        "numberOfBytes": "32"
      }
    }
  }
}