{
  "address": "0xD472AfBd4aAFBd0ffe44a2178c38bd821BcF37C0",
  "abi": [
    {
      "inputs": [
        {
          "internalType": "address",
          "name": "vrfCoordinatorV2",
          "type": "address"
        },
        {
          "internalType": "uint64",
          "name": "subcriptionId",
          "type": "uint64"
        },
        {
          "internalType": "bytes32",
          "name": "gasLane",
          "type": "bytes32"
        },
        {
          "internalType": "uint32",
          "name": "callbackGasLimit",
          "type": "uint32"
        },
        {
          "internalType": "string[3]",
          "name": "dogTokenUris",
          "type": "string[3]"
        },
        {
          "internalType": "uint256",
          "name": "mintFee",
          "type": "uint256"
        }
      ],
      "stateMutability": "nonpayable",
      "type": "constructor"
    },
    {
      "inputs": [
        {
          "internalType": "address",
          "name": "have",
          "type": "address"
        },
        {
          "internalType": "address",
          "name": "want",
          "type": "address"
        }
      ],
      "name": "OnlyCoordinatorCanFulfill",
      "type": "error"
    },
    {
      "inputs": [],
      "name": "RandomIpfsNft__NotEnoughMintFee",
      "type": "error"
    },
    {
      "inputs": [],
      "name": "RandomIpfsNft__RangeOutOfBounds",
      "type": "error"
    },
    {
      "inputs": [],
      "name": "RandomIpfsNft__TransferFailed",
      "type": "error"
    },
    {
      "anonymous": false,
      "inputs": [
        {
          "indexed": true,
          "internalType": "address",
          "name": "owner",
          "type": "address"
        },
        {
          "indexed": true,
          "internalType": "address",
          "name": "approved",
          "type": "address"
        },
        {
          "indexed": true,
          "internalType": "uint256",
          "name": "tokenId",
          "type": "uint256"
        }
      ],
      "name": "Approval",
      "type": "event"
    },
    {
      "anonymous": false,
      "inputs": [
        {
          "indexed": true,
          "internalType": "address",
          "name": "owner",
          "type": "address"
        },
        {
          "indexed": true,
          "internalType": "address",
          "name": "operator",
          "type": "address"
        },
        {
          "indexed": false,
          "internalType": "bool",
          "name": "approved",
          "type": "bool"
        }
      ],
      "name": "ApprovalForAll",
      "type": "event"
    },
    {
      "anonymous": false,
      "inputs": [
        {
          "indexed": false,
          "internalType": "enum RandomIpfsNft.BreedDog",
          "name": "bredDog",
          "type": "uint8"
        },
        {
          "indexed": false,
          "internalType": "address",
          "name": "minter",
          "type": "address"
        }
      ],
      "name": "NftMinted",
      "type": "event"
    },
    {
      "anonymous": false,
      "inputs": [
        {
          "indexed": true,
          "internalType": "uint256",
          "name": "requestId",
          "type": "uint256"
        },
        {
          "indexed": false,
          "internalType": "address",
          "name": "requester",
          "type": "address"
        }
      ],
      "name": "NftRequested",
      "type": "event"
    },
    {
      "anonymous": false,
      "inputs": [
        {
          "indexed": true,
          "internalType": "address",
          "name": "previousOwner",
          "type": "address"
        },
        {
          "indexed": true,
          "internalType": "address",
          "name": "newOwner",
          "type": "address"
        }
      ],
      "name": "OwnershipTransferred",
      "type": "event"
    },
    {
      "anonymous": false,
      "inputs": [
        {
          "indexed": true,
          "internalType": "address",
          "name": "from",
          "type": "address"
        },
        {
          "indexed": true,
          "internalType": "address",
          "name": "to",
          "type": "address"
        },
        {
          "indexed": true,
          "internalType": "uint256",
          "name": "tokenId",
          "type": "uint256"
        }
      ],
      "name": "Transfer",
      "type": "event"
    },
    {
      "inputs": [
        {
          "internalType": "address",
          "name": "to",
          "type": "address"
        },
        {
          "internalType": "uint256",
          "name": "tokenId",
          "type": "uint256"
        }
      ],
      "name": "approve",
      "outputs": [],
      "stateMutability": "nonpayable",
      "type": "function"
    },
    {
      "inputs": [
        {
          "internalType": "address",
          "name": "owner",
          "type": "address"
        }
      ],
      "name": "balanceOf",
      "outputs": [
        {
          "internalType": "uint256",
          "name": "",
          "type": "uint256"
        }
      ],
      "stateMutability": "view",
      "type": "function"
    },
    {
      "inputs": [
        {
          "internalType": "uint256",
          "name": "tokenId",
          "type": "uint256"
        }
      ],
      "name": "getApproved",
      "outputs": [
        {
          "internalType": "address",
          "name": "",
          "type": "address"
        }
      ],
      "stateMutability": "view",
      "type": "function"
    },
    {
      "inputs": [
        {
          "internalType": "uint256",
          "name": "moddedRng",
          "type": "uint256"
        }
      ],
      "name": "getBreedDogFromModdedRng",
      "outputs": [
        {
          "internalType": "enum RandomIpfsNft.BreedDog",
          "name": "",
          "type": "uint8"
        }
      ],
      "stateMutability": "pure",
      "type": "function"
    },
    {
      "inputs": [
        {
          "internalType": "uint256",
          "name": "index",
          "type": "uint256"
        }
      ],
      "name": "getDogTokenUris",
      "outputs": [
        {
          "internalType": "string",
          "name": "",
          "type": "string"
        }
      ],
      "stateMutability": "view",
      "type": "function"
    },
    {
      "inputs": [],
      "name": "getMintFee",
      "outputs": [
        {
          "internalType": "uint256",
          "name": "",
          "type": "uint256"
        }
      ],
      "stateMutability": "view",
      "type": "function"
    },
    {
      "inputs": [],
      "name": "getTokenCounter",
      "outputs": [
        {
          "internalType": "uint256",
          "name": "",
          "type": "uint256"
        }
      ],
      "stateMutability": "view",
      "type": "function"
    },
    {
      "inputs": [
        {
          "internalType": "address",
          "name": "owner",
          "type": "address"
        },
        {
          "internalType": "address",
          "name": "operator",
          "type": "address"
        }
      ],
      "name": "isApprovedForAll",
      "outputs": [
        {
          "internalType": "bool",
          "name": "",
          "type": "bool"
        }
      ],
      "stateMutability": "view",
      "type": "function"
    },
    {
      "inputs": [],
      "name": "name",
      "outputs": [
        {
          "internalType": "string",
          "name": "",
          "type": "string"
        }
      ],
      "stateMutability": "view",
      "type": "function"
    },
    {
      "inputs": [],
      "name": "owner",
      "outputs": [
        {
          "internalType": "address",
          "name": "",
          "type": "address"
        }
      ],
      "stateMutability": "view",
      "type": "function"
    },
    {
      "inputs": [
        {
          "internalType": "uint256",
          "name": "tokenId",
          "type": "uint256"
        }
      ],
      "name": "ownerOf",
      "outputs": [
        {
          "internalType": "address",
          "name": "",
          "type": "address"
        }
      ],
      "stateMutability": "view",
      "type": "function"
    },
    {
      "inputs": [
        {
          "internalType": "uint256",
          "name": "requestId",
          "type": "uint256"
        },
        {
          "internalType": "uint256[]",
          "name": "randomWords",
          "type": "uint256[]"
        }
      ],
      "name": "rawFulfillRandomWords",
      "outputs": [],
      "stateMutability": "nonpayable",
      "type": "function"
    },
    {
      "inputs": [],
      "name": "renounceOwnership",
      "outputs": [],
      "stateMutability": "nonpayable",
      "type": "function"
    },
    {
      "inputs": [],
      "name": "requestNft",
      "outputs": [
        {
          "internalType": "uint256",
          "name": "requestId",
          "type": "uint256"
        }
      ],
      "stateMutability": "payable",
      "type": "function"
    },
    {
      "inputs": [
        {
          "internalType": "uint256",
          "name": "",
          "type": "uint256"
        }
      ],
      "name": "s_requestIdToSender",
      "outputs": [
        {
          "internalType": "address",
          "name": "",
          "type": "address"
        }
      ],
      "stateMutability": "view",
      "type": "function"
    },
    {
      "inputs": [
        {
          "internalType": "address",
          "name": "from",
          "type": "address"
        },
        {
          "internalType": "address",
          "name": "to",
          "type": "address"
        },
        {
          "internalType": "uint256",
          "name": "tokenId",
          "type": "uint256"
        }
      ],
      "name": "safeTransferFrom",
      "outputs": [],
      "stateMutability": "nonpayable",
      "type": "function"
    },
    {
      "inputs": [
        {
          "internalType": "address",
          "name": "from",
          "type": "address"
        },
        {
          "internalType": "address",
          "name": "to",
          "type": "address"
        },
        {
          "internalType": "uint256",
          "name": "tokenId",
          "type": "uint256"
        },
        {
          "internalType": "bytes",
          "name": "data",
          "type": "bytes"
        }
      ],
      "name": "safeTransferFrom",
      "outputs": [],
      "stateMutability": "nonpayable",
      "type": "function"
    },
    {
      "inputs": [
        {
          "internalType": "address",
          "name": "operator",
          "type": "address"
        },
        {
          "internalType": "bool",
          "name": "approved",
          "type": "bool"
        }
      ],
      "name": "setApprovalForAll",
      "outputs": [],
      "stateMutability": "nonpayable",
      "type": "function"
    },
    {
      "inputs": [
        {
          "internalType": "bytes4",
          "name": "interfaceId",
          "type": "bytes4"
        }
      ],
      "name": "supportsInterface",
      "outputs": [
        {
          "internalType": "bool",
          "name": "",
          "type": "bool"
        }
      ],
      "stateMutability": "view",
      "type": "function"
    },
    {
      "inputs": [],
      "name": "symbol",
      "outputs": [
        {
          "internalType": "string",
          "name": "",
          "type": "string"
        }
      ],
      "stateMutability": "view",
      "type": "function"
    },
    {
      "inputs": [
        {
          "internalType": "uint256",
          "name": "tokenId",
          "type": "uint256"
        }
      ],
      "name": "tokenURI",
      "outputs": [
        {
          "internalType": "string",
          "name": "",
          "type": "string"
        }
      ],
      "stateMutability": "view",
      "type": "function"
    },
    {
      "inputs": [
        {
          "internalType": "address",
          "name": "from",
          "type": "address"
        },
        {
          "internalType": "address",
          "name": "to",
          "type": "address"
        },
        {
          "internalType": "uint256",
          "name": "tokenId",
          "type": "uint256"
        }
      ],
      "name": "transferFrom",
      "outputs": [],
      "stateMutability": "nonpayable",
      "type": "function"
    },
    {
      "inputs": [
        {
          "internalType": "address",
          "name": "newOwner",
          "type": "address"
        }
      ],
      "name": "transferOwnership",
      "outputs": [],
      "stateMutability": "nonpayable",
      "type": "function"
    },
    {
      "inputs": [],
      "name": "withdraw",
      "outputs": [],
      "stateMutability": "nonpayable",
      "type": "function"
    }
  ],
  "transactionHash": "0x14ecca081824903a0a8bbe6f99589bc14e5f70dd1590e149e733b289026c4234",
  "args": [
    "0x2Ca8E0C643bDe4C2E08ab1fA0da3401AdAD7734D",
    "2339",
    "0x79d3d8832d904592c0bf9818b621522c988bb8b0c05cdc3b15aea1b6e8db0c15",
    "500000",
    [
      "ipfs://QmT4bsro2Etjywzut5wpowLQ1Yp6DfxQZpJpfmgWAQz8KZ",
      "ipfs://QmSKhxNsZUKsRvQRaHTwq4DyTftKogX4Uv1DtbUm2VThZk",
      "ipfs://QmaJtU2zcYPFMyZtNgZzFzTofGtjvzpHzogvDhWcBHSzBW"
    ],
    "10000000000000000"
  ],
  "numDeployments": 1,
  "solcInputHash": "22546568dca88ee445aa7c6cd8990ec1",
  "bytecode": "0x6101406040523480156200001257600080fd5b50604051620041bb380380620041bb8339818101604052810190620000389190620005d7565b6040518060400160405280600f81526020017f52616e646f6d2049504653204e465400000000000000000000000000000000008152506040518060400160405280600381526020017f52494e0000000000000000000000000000000000000000000000000000000000815250878073ffffffffffffffffffffffffffffffffffffffff1660808173ffffffffffffffffffffffffffffffffffffffff1660601b81525050508160009080519060200190620000f59291906200029e565b5080600190805190602001906200010e9291906200029e565b5050506200013162000125620001d060201b60201c565b620001d860201b60201c565b8573ffffffffffffffffffffffffffffffffffffffff1660a08173ffffffffffffffffffffffffffffffffffffffff1660601b815250508467ffffffffffffffff1660c08167ffffffffffffffff1660c01b815250508360e081815250508263ffffffff166101008163ffffffff1660e01b8152505081600a906003620001ba9291906200032f565b5080610120818152505050505050505062000932565b600033905090565b6000600760009054906101000a900473ffffffffffffffffffffffffffffffffffffffff16905081600760006101000a81548173ffffffffffffffffffffffffffffffffffffffff021916908373ffffffffffffffffffffffffffffffffffffffff1602179055508173ffffffffffffffffffffffffffffffffffffffff168173ffffffffffffffffffffffffffffffffffffffff167f8be0079c531659141344cd1fd0a4f28419497f9722a3daafe3b4186f6b6457e060405160405180910390a35050565b828054620002ac90620007bc565b90600052602060002090601f016020900481019282620002d057600085556200031c565b82601f10620002eb57805160ff19168380011785556200031c565b828001600101855582156200031c579182015b828111156200031b578251825591602001919060010190620002fe565b5b5090506200032b919062000396565b5090565b82805482825590600052602060002090810192821562000383579160200282015b8281111562000382578251829080519060200190620003719291906200029e565b509160200191906001019062000350565b5b509050620003929190620003b5565b5090565b5b80821115620003b157600081600090555060010162000397565b5090565b5b80821115620003d95760008181620003cf9190620003dd565b50600101620003b6565b5090565b508054620003eb90620007bc565b6000825580601f10620003ff575062000420565b601f0160209004906000526020600020908101906200041f919062000396565b5b50565b60006200043a6200043484620006bb565b62000692565b905080828560208602820111156200045757620004566200088b565b5b60005b85811015620004ac57815167ffffffffffffffff81111562000481576200048062000886565b5b8086016200049089826200055f565b855260208501945060208401935050506001810190506200045a565b5050509392505050565b6000620004cd620004c784620006e4565b62000692565b905082815260208101848484011115620004ec57620004eb62000890565b5b620004f984828562000786565b509392505050565b6000815190506200051281620008b0565b92915050565b600082601f83011262000530576200052f62000886565b5b60036200053f84828562000423565b91505092915050565b6000815190506200055981620008ca565b92915050565b600082601f83011262000577576200057662000886565b5b815162000589848260208601620004b6565b91505092915050565b600081519050620005a381620008e4565b92915050565b600081519050620005ba81620008fe565b92915050565b600081519050620005d18162000918565b92915050565b60008060008060008060c08789031215620005f757620005f66200089a565b5b60006200060789828a0162000501565b96505060206200061a89828a01620005c0565b95505060406200062d89828a0162000548565b94505060606200064089828a01620005a9565b935050608087015167ffffffffffffffff81111562000664576200066362000895565b5b6200067289828a0162000518565b92505060a06200068589828a0162000592565b9150509295509295509295565b60006200069e620006b1565b9050620006ac8282620007f2565b919050565b6000604051905090565b600067ffffffffffffffff821115620006d957620006d862000857565b5b602082029050919050565b600067ffffffffffffffff82111562000702576200070162000857565b5b6200070d826200089f565b9050602081019050919050565b6000620007278262000738565b9050919050565b6000819050919050565b600073ffffffffffffffffffffffffffffffffffffffff82169050919050565b6000819050919050565b600063ffffffff82169050919050565b600067ffffffffffffffff82169050919050565b60005b83811015620007a657808201518184015260208101905062000789565b83811115620007b6576000848401525b50505050565b60006002820490506001821680620007d557607f821691505b60208210811415620007ec57620007eb62000828565b5b50919050565b620007fd826200089f565b810181811067ffffffffffffffff821117156200081f576200081e62000857565b5b80604052505050565b7f4e487b7100000000000000000000000000000000000000000000000000000000600052602260045260246000fd5b7f4e487b7100000000000000000000000000000000000000000000000000000000600052604160045260246000fd5b600080fd5b600080fd5b600080fd5b600080fd5b600080fd5b6000601f19601f8301169050919050565b620008bb816200071a565b8114620008c757600080fd5b50565b620008d5816200072e565b8114620008e157600080fd5b50565b620008ef8162000758565b8114620008fb57600080fd5b50565b620009098162000762565b81146200091557600080fd5b50565b620009238162000772565b81146200092f57600080fd5b50565b60805160601c60a05160601c60c05160c01c60e0516101005160e01c6101205161381f6200099c60003960008181610d850152610eb201526000610f8c01526000610f4801526000610f6901526000610f0c01526000818161088b01526108df015261381f6000f3fe60806040526004361061014b5760003560e01c8063715018a6116100b6578063a36f573b1161006f578063a36f573b14610490578063aa152491146104cd578063b88d4fde146104eb578063c87b56dd14610514578063e985e9c514610551578063f2fde38b1461058e5761014b565b8063715018a61461039257806379fd9fcb146103a95780637a5caab3146103e65780638da5cb5b1461041157806395d89b411461043c578063a22cb465146104675761014b565b80633af25975116101085780633af25975146102705780633ccfd60b146102ad57806342842e0e146102c45780636352211e146102ed5780636e02007d1461032a57806370a08231146103555761014b565b806301ffc9a71461015057806306fdde031461018d578063081812fc146101b8578063095ea7b3146101f55780631fe543e31461021e57806323b872dd14610247575b600080fd5b34801561015c57600080fd5b506101776004803603810190610172919061276f565b6105b7565b6040516101849190612c70565b60405180910390f35b34801561019957600080fd5b506101a2610699565b6040516101af9190612d22565b60405180910390f35b3480156101c457600080fd5b506101df60048036038101906101da91906127c9565b61072b565b6040516101ec9190612be0565b60405180910390f35b34801561020157600080fd5b5061021c6004803603810190610217919061272f565b610771565b005b34801561022a57600080fd5b5061024560048036038101906102409190612823565b610889565b005b34801561025357600080fd5b5061026e60048036038101906102699190612619565b610949565b005b34801561027c57600080fd5b50610297600480360381019061029291906127c9565b6109a9565b6040516102a49190612d22565b60405180910390f35b3480156102b957600080fd5b506102c2610a59565b005b3480156102d057600080fd5b506102eb60048036038101906102e69190612619565b610b0d565b005b3480156102f957600080fd5b50610314600480360381019061030f91906127c9565b610b2d565b6040516103219190612be0565b60405180910390f35b34801561033657600080fd5b5061033f610bdf565b60405161034c9190612f04565b60405180910390f35b34801561036157600080fd5b5061037c600480360381019061037791906125ac565b610be9565b6040516103899190612f04565b60405180910390f35b34801561039e57600080fd5b506103a7610ca1565b005b3480156103b557600080fd5b506103d060048036038101906103cb91906127c9565b610cb5565b6040516103dd9190612cde565b60405180910390f35b3480156103f257600080fd5b506103fb610d81565b6040516104089190612f04565b60405180910390f35b34801561041d57600080fd5b50610426610da9565b6040516104339190612be0565b60405180910390f35b34801561044857600080fd5b50610451610dd3565b60405161045e9190612d22565b60405180910390f35b34801561047357600080fd5b5061048e600480360381019061048991906126ef565b610e65565b005b34801561049c57600080fd5b506104b760048036038101906104b291906127c9565b610e7b565b6040516104c49190612be0565b60405180910390f35b6104d5610eae565b6040516104e29190612f04565b60405180910390f35b3480156104f757600080fd5b50610512600480360381019061050d919061266c565b6110ae565b005b34801561052057600080fd5b5061053b600480360381019061053691906127c9565b611110565b6040516105489190612d22565b60405180910390f35b34801561055d57600080fd5b50610578600480360381019061057391906125d9565b611223565b6040516105859190612c70565b60405180910390f35b34801561059a57600080fd5b506105b560048036038101906105b091906125ac565b6112b7565b005b60007f80ac58cd000000000000000000000000000000000000000000000000000000007bffffffffffffffffffffffffffffffffffffffffffffffffffffffff1916827bffffffffffffffffffffffffffffffffffffffffffffffffffffffff1916148061068257507f5b5e139f000000000000000000000000000000000000000000000000000000007bffffffffffffffffffffffffffffffffffffffffffffffffffffffff1916827bffffffffffffffffffffffffffffffffffffffffffffffffffffffff1916145b8061069257506106918261133b565b5b9050919050565b6060600080546106a8906131c1565b80601f01602080910402602001604051908101604052809291908181526020018280546106d4906131c1565b80156107215780601f106106f657610100808354040283529160200191610721565b820191906000526020600020905b81548152906001019060200180831161070457829003601f168201915b5050505050905090565b6000610736826113a5565b6004600083815260200190815260200160002060009054906101000a900473ffffffffffffffffffffffffffffffffffffffff169050919050565b600061077c82610b2d565b90508073ffffffffffffffffffffffffffffffffffffffff168373ffffffffffffffffffffffffffffffffffffffff1614156107ed576040517f08c379a00000000000000000000000000000000000000000000000000000000081526004016107e490612ec4565b60405180910390fd5b8073ffffffffffffffffffffffffffffffffffffffff1661080c6113f0565b73ffffffffffffffffffffffffffffffffffffffff16148061083b575061083a816108356113f0565b611223565b5b61087a576040517f08c379a000000000000000000000000000000000000000000000000000000000815260040161087190612e44565b60405180910390fd5b61088483836113f8565b505050565b7f000000000000000000000000000000000000000000000000000000000000000073ffffffffffffffffffffffffffffffffffffffff163373ffffffffffffffffffffffffffffffffffffffff161461093b57337f00000000000000000000000000000000000000000000000000000000000000006040517f1cf993f4000000000000000000000000000000000000000000000000000000008152600401610932929190612bfb565b60405180910390fd5b61094582826114b1565b5050565b61095a6109546113f0565b82611650565b610999576040517f08c379a000000000000000000000000000000000000000000000000000000000815260040161099090612ee4565b60405180910390fd5b6109a48383836116e5565b505050565b6060600a82815481106109bf576109be61335a565b5b9060005260206000200180546109d4906131c1565b80601f0160208091040260200160405190810160405280929190818152602001828054610a00906131c1565b8015610a4d5780601f10610a2257610100808354040283529160200191610a4d565b820191906000526020600020905b815481529060010190602001808311610a3057829003601f168201915b50505050509050919050565b610a6161194c565b600047905060003373ffffffffffffffffffffffffffffffffffffffff1682604051610a8c90612bcb565b60006040518083038185875af1925050503d8060008114610ac9576040519150601f19603f3d011682016040523d82523d6000602084013e610ace565b606091505b5050905080610b09576040517fca7e25b700000000000000000000000000000000000000000000000000000000815260040160405180910390fd5b5050565b610b28838383604051806020016040528060008152506110ae565b505050565b6000806002600084815260200190815260200160002060009054906101000a900473ffffffffffffffffffffffffffffffffffffffff169050600073ffffffffffffffffffffffffffffffffffffffff168173ffffffffffffffffffffffffffffffffffffffff161415610bd6576040517f08c379a0000000000000000000000000000000000000000000000000000000008152600401610bcd90612ea4565b60405180910390fd5b80915050919050565b6000600954905090565b60008073ffffffffffffffffffffffffffffffffffffffff168273ffffffffffffffffffffffffffffffffffffffff161415610c5a576040517f08c379a0000000000000000000000000000000000000000000000000000000008152600401610c5190612e04565b60405180910390fd5b600360008373ffffffffffffffffffffffffffffffffffffffff1673ffffffffffffffffffffffffffffffffffffffff168152602001908152602001600020549050919050565b610ca961194c565b610cb360006119ca565b565b600080600090506000610cc6611a90565b905060005b6003811015610d4957828510158015610cfa5750818160038110610cf257610cf161335a565b5b602002015185105b15610d1c57806002811115610d1257610d116132fc565b5b9350505050610d7c565b818160038110610d2f57610d2e61335a565b5b602002015192508080610d4190613224565b915050610ccb565b506040517f12806c9d00000000000000000000000000000000000000000000000000000000815260040160405180910390fd5b919050565b60007f0000000000000000000000000000000000000000000000000000000000000000905090565b6000600760009054906101000a900473ffffffffffffffffffffffffffffffffffffffff16905090565b606060018054610de2906131c1565b80601f0160208091040260200160405190810160405280929190818152602001828054610e0e906131c1565b8015610e5b5780601f10610e3057610100808354040283529160200191610e5b565b820191906000526020600020905b815481529060010190602001808311610e3e57829003601f168201915b5050505050905090565b610e77610e706113f0565b8383611abb565b5050565b60086020528060005260406000206000915054906101000a900473ffffffffffffffffffffffffffffffffffffffff1681565b60007f0000000000000000000000000000000000000000000000000000000000000000341015610f0a576040517f28e99b6600000000000000000000000000000000000000000000000000000000815260040160405180910390fd5b7f000000000000000000000000000000000000000000000000000000000000000073ffffffffffffffffffffffffffffffffffffffff16635d3b1d307f00000000000000000000000000000000000000000000000000000000000000007f000000000000000000000000000000000000000000000000000000000000000060037f000000000000000000000000000000000000000000000000000000000000000060016040518663ffffffff1660e01b8152600401610fcd959493929190612c8b565b602060405180830381600087803b158015610fe757600080fd5b505af1158015610ffb573d6000803e3d6000fd5b505050506040513d601f19601f8201168201806040525081019061101f91906127f6565b9050336008600083815260200190815260200160002060006101000a81548173ffffffffffffffffffffffffffffffffffffffff021916908373ffffffffffffffffffffffffffffffffffffffff160217905550807ff873236e6cc0ecc5be1a9a35c95ee5b8d1ac4cc7bfef0cc5060391d6cc98e26b336040516110a39190612be0565b60405180910390a290565b6110bf6110b96113f0565b83611650565b6110fe576040517f08c379a00000000000000000000000000000000000000000000000000000000081526004016110f590612ee4565b60405180910390fd5b61110a84848484611c28565b50505050565b606061111b826113a5565b600060066000848152602001908152602001600020805461113b906131c1565b80601f0160208091040260200160405190810160405280929190818152602001828054611167906131c1565b80156111b45780601f10611189576101008083540402835291602001916111b4565b820191906000526020600020905b81548152906001019060200180831161119757829003601f168201915b5050505050905060006111c5611c84565b90506000815114156111db57819250505061121e565b6000825111156112105780826040516020016111f8929190612ba7565b6040516020818303038152906040529250505061121e565b61121984611c9b565b925050505b919050565b6000600560008473ffffffffffffffffffffffffffffffffffffffff1673ffffffffffffffffffffffffffffffffffffffff16815260200190815260200160002060008373ffffffffffffffffffffffffffffffffffffffff1673ffffffffffffffffffffffffffffffffffffffff16815260200190815260200160002060009054906101000a900460ff16905092915050565b6112bf61194c565b600073ffffffffffffffffffffffffffffffffffffffff168173ffffffffffffffffffffffffffffffffffffffff16141561132f576040517f08c379a000000000000000000000000000000000000000000000000000000000815260040161132690612d64565b60405180910390fd5b611338816119ca565b50565b60007f01ffc9a7000000000000000000000000000000000000000000000000000000007bffffffffffffffffffffffffffffffffffffffffffffffffffffffff1916827bffffffffffffffffffffffffffffffffffffffffffffffffffffffff1916149050919050565b6113ae81611d03565b6113ed576040517f08c379a00000000000000000000000000000000000000000000000000000000081526004016113e490612ea4565b60405180910390fd5b50565b600033905090565b816004600083815260200190815260200160002060006101000a81548173ffffffffffffffffffffffffffffffffffffffff021916908373ffffffffffffffffffffffffffffffffffffffff160217905550808273ffffffffffffffffffffffffffffffffffffffff1661146b83610b2d565b73ffffffffffffffffffffffffffffffffffffffff167f8c5be1e5ebec7d5bd14f71427d1e84f3dd0314c0f7b2291e5b200ac8c7c3b92560405160405180910390a45050565b60006008600084815260200190815260200160002060009054906101000a900473ffffffffffffffffffffffffffffffffffffffff1690506000600954905060006064846000815181106115085761150761335a565b5b602002602001015161151a919061326d565b9050600061152782610cb5565b90506115338484611d6f565b6115f583600a83600281111561154c5761154b6132fc565b5b8154811061155d5761155c61335a565b5b906000526020600020018054611572906131c1565b80601f016020809104026020016040519081016040528092919081815260200182805461159e906131c1565b80156115eb5780601f106115c0576101008083540402835291602001916115eb565b820191906000526020600020905b8154815290600101906020018083116115ce57829003601f168201915b5050505050611d8d565b6001600960008282546116089190612fef565b925050819055507f8a269f26b688e110e9cbd887d163dab35cae678fa353a0292de532c0cac1ecdc8185604051611640929190612cf9565b60405180910390a1505050505050565b60008061165c83610b2d565b90508073ffffffffffffffffffffffffffffffffffffffff168473ffffffffffffffffffffffffffffffffffffffff16148061169e575061169d8185611223565b5b806116dc57508373ffffffffffffffffffffffffffffffffffffffff166116c48461072b565b73ffffffffffffffffffffffffffffffffffffffff16145b91505092915050565b8273ffffffffffffffffffffffffffffffffffffffff1661170582610b2d565b73ffffffffffffffffffffffffffffffffffffffff161461175b576040517f08c379a000000000000000000000000000000000000000000000000000000000815260040161175290612d84565b60405180910390fd5b600073ffffffffffffffffffffffffffffffffffffffff168273ffffffffffffffffffffffffffffffffffffffff1614156117cb576040517f08c379a00000000000000000000000000000000000000000000000000000000081526004016117c290612dc4565b60405180910390fd5b6117d6838383611e01565b6117e16000826113f8565b6001600360008573ffffffffffffffffffffffffffffffffffffffff1673ffffffffffffffffffffffffffffffffffffffff16815260200190815260200160002060008282546118319190613076565b925050819055506001600360008473ffffffffffffffffffffffffffffffffffffffff1673ffffffffffffffffffffffffffffffffffffffff16815260200190815260200160002060008282546118889190612fef565b92505081905550816002600083815260200190815260200160002060006101000a81548173ffffffffffffffffffffffffffffffffffffffff021916908373ffffffffffffffffffffffffffffffffffffffff160217905550808273ffffffffffffffffffffffffffffffffffffffff168473ffffffffffffffffffffffffffffffffffffffff167fddf252ad1be2c89b69c2b068fc378daa952ba7f163c4a11628f55a4df523b3ef60405160405180910390a4611947838383611e06565b505050565b6119546113f0565b73ffffffffffffffffffffffffffffffffffffffff16611972610da9565b73ffffffffffffffffffffffffffffffffffffffff16146119c8576040517f08c379a00000000000000000000000000000000000000000000000000000000081526004016119bf90612e84565b60405180910390fd5b565b6000600760009054906101000a900473ffffffffffffffffffffffffffffffffffffffff16905081600760006101000a81548173ffffffffffffffffffffffffffffffffffffffff021916908373ffffffffffffffffffffffffffffffffffffffff1602179055508173ffffffffffffffffffffffffffffffffffffffff168173ffffffffffffffffffffffffffffffffffffffff167f8be0079c531659141344cd1fd0a4f28419497f9722a3daafe3b4186f6b6457e060405160405180910390a35050565b611a9861235b565b6040518060600160405280600a8152602001601e81526020016064815250905090565b8173ffffffffffffffffffffffffffffffffffffffff168373ffffffffffffffffffffffffffffffffffffffff161415611b2a576040517f08c379a0000000000000000000000000000000000000000000000000000000008152600401611b2190612de4565b60405180910390fd5b80600560008573ffffffffffffffffffffffffffffffffffffffff1673ffffffffffffffffffffffffffffffffffffffff16815260200190815260200160002060008473ffffffffffffffffffffffffffffffffffffffff1673ffffffffffffffffffffffffffffffffffffffff16815260200190815260200160002060006101000a81548160ff0219169083151502179055508173ffffffffffffffffffffffffffffffffffffffff168373ffffffffffffffffffffffffffffffffffffffff167f17307eab39ab6107e8899845ad3d59bd9653f200f220920489ca2b5937696c3183604051611c1b9190612c70565b60405180910390a3505050565b611c338484846116e5565b611c3f84848484611e0b565b611c7e576040517f08c379a0000000000000000000000000000000000000000000000000000000008152600401611c7590612d44565b60405180910390fd5b50505050565b606060405180602001604052806000815250905090565b6060611ca6826113a5565b6000611cb0611c84565b90506000815111611cd05760405180602001604052806000815250611cfb565b80611cda84611fa2565b604051602001611ceb929190612ba7565b6040516020818303038152906040525b915050919050565b60008073ffffffffffffffffffffffffffffffffffffffff166002600084815260200190815260200160002060009054906101000a900473ffffffffffffffffffffffffffffffffffffffff1673ffffffffffffffffffffffffffffffffffffffff1614159050919050565b611d89828260405180602001604052806000815250612103565b5050565b611d9682611d03565b611dd5576040517f08c379a0000000000000000000000000000000000000000000000000000000008152600401611dcc90612e24565b60405180910390fd5b80600660008481526020019081526020016000209080519060200190611dfc92919061237d565b505050565b505050565b505050565b6000611e2c8473ffffffffffffffffffffffffffffffffffffffff1661215e565b15611f95578373ffffffffffffffffffffffffffffffffffffffff1663150b7a02611e556113f0565b8786866040518563ffffffff1660e01b8152600401611e779493929190612c24565b602060405180830381600087803b158015611e9157600080fd5b505af1925050508015611ec257506040513d601f19601f82011682018060405250810190611ebf919061279c565b60015b611f45573d8060008114611ef2576040519150601f19603f3d011682016040523d82523d6000602084013e611ef7565b606091505b50600081511415611f3d576040517f08c379a0000000000000000000000000000000000000000000000000000000008152600401611f3490612d44565b60405180910390fd5b805181602001fd5b63150b7a0260e01b7bffffffffffffffffffffffffffffffffffffffffffffffffffffffff1916817bffffffffffffffffffffffffffffffffffffffffffffffffffffffff191614915050611f9a565b600190505b949350505050565b60606000821415611fea576040518060400160405280600181526020017f300000000000000000000000000000000000000000000000000000000000000081525090506120fe565b600082905060005b6000821461201c57808061200590613224565b915050600a826120159190613045565b9150611ff2565b60008167ffffffffffffffff81111561203857612037613389565b5b6040519080825280601f01601f19166020018201604052801561206a5781602001600182028036833780820191505090505b5090505b600085146120f7576001826120839190613076565b9150600a85612092919061326d565b603061209e9190612fef565b60f81b8183815181106120b4576120b361335a565b5b60200101907effffffffffffffffffffffffffffffffffffffffffffffffffffffffffffff1916908160001a905350600a856120f09190613045565b945061206e565b8093505050505b919050565b61210d8383612181565b61211a6000848484611e0b565b612159576040517f08c379a000000000000000000000000000000000000000000000000000000000815260040161215090612d44565b60405180910390fd5b505050565b6000808273ffffffffffffffffffffffffffffffffffffffff163b119050919050565b600073ffffffffffffffffffffffffffffffffffffffff168273ffffffffffffffffffffffffffffffffffffffff1614156121f1576040517f08c379a00000000000000000000000000000000000000000000000000000000081526004016121e890612e64565b60405180910390fd5b6121fa81611d03565b1561223a576040517f08c379a000000000000000000000000000000000000000000000000000000000815260040161223190612da4565b60405180910390fd5b61224660008383611e01565b6001600360008473ffffffffffffffffffffffffffffffffffffffff1673ffffffffffffffffffffffffffffffffffffffff16815260200190815260200160002060008282546122969190612fef565b92505081905550816002600083815260200190815260200160002060006101000a81548173ffffffffffffffffffffffffffffffffffffffff021916908373ffffffffffffffffffffffffffffffffffffffff160217905550808273ffffffffffffffffffffffffffffffffffffffff16600073ffffffffffffffffffffffffffffffffffffffff167fddf252ad1be2c89b69c2b068fc378daa952ba7f163c4a11628f55a4df523b3ef60405160405180910390a461235760008383611e06565b5050565b6040518060600160405280600390602082028036833780820191505090505090565b828054612389906131c1565b90600052602060002090601f0160209004810192826123ab57600085556123f2565b82601f106123c457805160ff19168380011785556123f2565b828001600101855582156123f2579182015b828111156123f15782518255916020019190600101906123d6565b5b5090506123ff9190612403565b5090565b5b8082111561241c576000816000905550600101612404565b5090565b600061243361242e84612f44565b612f1f565b90508083825260208201905082856020860282011115612456576124556133bd565b5b60005b85811015612486578161246c8882612582565b845260208401935060208301925050600181019050612459565b5050509392505050565b60006124a361249e84612f70565b612f1f565b9050828152602081018484840111156124bf576124be6133c2565b5b6124ca84828561317f565b509392505050565b6000813590506124e18161378d565b92915050565b600082601f8301126124fc576124fb6133b8565b5b813561250c848260208601612420565b91505092915050565b600081359050612524816137a4565b92915050565b600081359050612539816137bb565b92915050565b60008151905061254e816137bb565b92915050565b600082601f830112612569576125686133b8565b5b8135612579848260208601612490565b91505092915050565b600081359050612591816137d2565b92915050565b6000815190506125a6816137d2565b92915050565b6000602082840312156125c2576125c16133cc565b5b60006125d0848285016124d2565b91505092915050565b600080604083850312156125f0576125ef6133cc565b5b60006125fe858286016124d2565b925050602061260f858286016124d2565b9150509250929050565b600080600060608486031215612632576126316133cc565b5b6000612640868287016124d2565b9350506020612651868287016124d2565b925050604061266286828701612582565b9150509250925092565b60008060008060808587031215612686576126856133cc565b5b6000612694878288016124d2565b94505060206126a5878288016124d2565b93505060406126b687828801612582565b925050606085013567ffffffffffffffff8111156126d7576126d66133c7565b5b6126e387828801612554565b91505092959194509250565b60008060408385031215612706576127056133cc565b5b6000612714858286016124d2565b925050602061272585828601612515565b9150509250929050565b60008060408385031215612746576127456133cc565b5b6000612754858286016124d2565b925050602061276585828601612582565b9150509250929050565b600060208284031215612785576127846133cc565b5b60006127938482850161252a565b91505092915050565b6000602082840312156127b2576127b16133cc565b5b60006127c08482850161253f565b91505092915050565b6000602082840312156127df576127de6133cc565b5b60006127ed84828501612582565b91505092915050565b60006020828403121561280c5761280b6133cc565b5b600061281a84828501612597565b91505092915050565b6000806040838503121561283a576128396133cc565b5b600061284885828601612582565b925050602083013567ffffffffffffffff811115612869576128686133c7565b5b612875858286016124e7565b9150509250929050565b612888816130aa565b82525050565b612897816130bc565b82525050565b6128a6816130c8565b82525050565b60006128b782612fa1565b6128c18185612fb7565b93506128d181856020860161318e565b6128da816133d1565b840191505092915050565b6128ee8161316d565b82525050565b60006128ff82612fac565b6129098185612fd3565b935061291981856020860161318e565b612922816133d1565b840191505092915050565b600061293882612fac565b6129428185612fe4565b935061295281856020860161318e565b80840191505092915050565b600061296b603283612fd3565b9150612976826133e2565b604082019050919050565b600061298e602683612fd3565b915061299982613431565b604082019050919050565b60006129b1602583612fd3565b91506129bc82613480565b604082019050919050565b60006129d4601c83612fd3565b91506129df826134cf565b602082019050919050565b60006129f7602483612fd3565b9150612a02826134f8565b604082019050919050565b6000612a1a601983612fd3565b9150612a2582613547565b602082019050919050565b6000612a3d602983612fd3565b9150612a4882613570565b604082019050919050565b6000612a60602e83612fd3565b9150612a6b826135bf565b604082019050919050565b6000612a83603e83612fd3565b9150612a8e8261360e565b604082019050919050565b6000612aa6602083612fd3565b9150612ab18261365d565b602082019050919050565b6000612ac9602083612fd3565b9150612ad482613686565b602082019050919050565b6000612aec601883612fd3565b9150612af7826136af565b602082019050919050565b6000612b0f602183612fd3565b9150612b1a826136d8565b604082019050919050565b6000612b32600083612fc8565b9150612b3d82613727565b600082019050919050565b6000612b55602e83612fd3565b9150612b608261372a565b604082019050919050565b612b7481613111565b82525050565b612b838161313f565b82525050565b612b9281613149565b82525050565b612ba181613159565b82525050565b6000612bb3828561292d565b9150612bbf828461292d565b91508190509392505050565b6000612bd682612b25565b9150819050919050565b6000602082019050612bf5600083018461287f565b92915050565b6000604082019050612c10600083018561287f565b612c1d602083018461287f565b9392505050565b6000608082019050612c39600083018761287f565b612c46602083018661287f565b612c536040830185612b7a565b8181036060830152612c6581846128ac565b905095945050505050565b6000602082019050612c85600083018461288e565b92915050565b600060a082019050612ca0600083018861289d565b612cad6020830187612b98565b612cba6040830186612b6b565b612cc76060830185612b89565b612cd46080830184612b89565b9695505050505050565b6000602082019050612cf360008301846128e5565b92915050565b6000604082019050612d0e60008301856128e5565b612d1b602083018461287f565b9392505050565b60006020820190508181036000830152612d3c81846128f4565b905092915050565b60006020820190508181036000830152612d5d8161295e565b9050919050565b60006020820190508181036000830152612d7d81612981565b9050919050565b60006020820190508181036000830152612d9d816129a4565b9050919050565b60006020820190508181036000830152612dbd816129c7565b9050919050565b60006020820190508181036000830152612ddd816129ea565b9050919050565b60006020820190508181036000830152612dfd81612a0d565b9050919050565b60006020820190508181036000830152612e1d81612a30565b9050919050565b60006020820190508181036000830152612e3d81612a53565b9050919050565b60006020820190508181036000830152612e5d81612a76565b9050919050565b60006020820190508181036000830152612e7d81612a99565b9050919050565b60006020820190508181036000830152612e9d81612abc565b9050919050565b60006020820190508181036000830152612ebd81612adf565b9050919050565b60006020820190508181036000830152612edd81612b02565b9050919050565b60006020820190508181036000830152612efd81612b48565b9050919050565b6000602082019050612f196000830184612b7a565b92915050565b6000612f29612f3a565b9050612f3582826131f3565b919050565b6000604051905090565b600067ffffffffffffffff821115612f5f57612f5e613389565b5b602082029050602081019050919050565b600067ffffffffffffffff821115612f8b57612f8a613389565b5b612f94826133d1565b9050602081019050919050565b600081519050919050565b600081519050919050565b600082825260208201905092915050565b600081905092915050565b600082825260208201905092915050565b600081905092915050565b6000612ffa8261313f565b91506130058361313f565b9250827fffffffffffffffffffffffffffffffffffffffffffffffffffffffffffffffff0382111561303a5761303961329e565b5b828201905092915050565b60006130508261313f565b915061305b8361313f565b92508261306b5761306a6132cd565b5b828204905092915050565b60006130818261313f565b915061308c8361313f565b92508282101561309f5761309e61329e565b5b828203905092915050565b60006130b58261311f565b9050919050565b60008115159050919050565b6000819050919050565b60007fffffffff0000000000000000000000000000000000000000000000000000000082169050919050565b600081905061310c82613779565b919050565b600061ffff82169050919050565b600073ffffffffffffffffffffffffffffffffffffffff82169050919050565b6000819050919050565b600063ffffffff82169050919050565b600067ffffffffffffffff82169050919050565b6000613178826130fe565b9050919050565b82818337600083830152505050565b60005b838110156131ac578082015181840152602081019050613191565b838111156131bb576000848401525b50505050565b600060028204905060018216806131d957607f821691505b602082108114156131ed576131ec61332b565b5b50919050565b6131fc826133d1565b810181811067ffffffffffffffff8211171561321b5761321a613389565b5b80604052505050565b600061322f8261313f565b91507fffffffffffffffffffffffffffffffffffffffffffffffffffffffffffffffff8214156132625761326161329e565b5b600182019050919050565b60006132788261313f565b91506132838361313f565b925082613293576132926132cd565b5b828206905092915050565b7f4e487b7100000000000000000000000000000000000000000000000000000000600052601160045260246000fd5b7f4e487b7100000000000000000000000000000000000000000000000000000000600052601260045260246000fd5b7f4e487b7100000000000000000000000000000000000000000000000000000000600052602160045260246000fd5b7f4e487b7100000000000000000000000000000000000000000000000000000000600052602260045260246000fd5b7f4e487b7100000000000000000000000000000000000000000000000000000000600052603260045260246000fd5b7f4e487b7100000000000000000000000000000000000000000000000000000000600052604160045260246000fd5b600080fd5b600080fd5b600080fd5b600080fd5b600080fd5b6000601f19601f8301169050919050565b7f4552433732313a207472616e7366657220746f206e6f6e20455243373231526560008201527f63656976657220696d706c656d656e7465720000000000000000000000000000602082015250565b7f4f776e61626c653a206e6577206f776e657220697320746865207a65726f206160008201527f6464726573730000000000000000000000000000000000000000000000000000602082015250565b7f4552433732313a207472616e736665722066726f6d20696e636f72726563742060008201527f6f776e6572000000000000000000000000000000000000000000000000000000602082015250565b7f4552433732313a20746f6b656e20616c7265616479206d696e74656400000000600082015250565b7f4552433732313a207472616e7366657220746f20746865207a65726f2061646460008201527f7265737300000000000000000000000000000000000000000000000000000000602082015250565b7f4552433732313a20617070726f766520746f2063616c6c657200000000000000600082015250565b7f4552433732313a2061646472657373207a65726f206973206e6f74206120766160008201527f6c6964206f776e65720000000000000000000000000000000000000000000000602082015250565b7f45524337323155524953746f726167653a2055524920736574206f66206e6f6e60008201527f6578697374656e7420746f6b656e000000000000000000000000000000000000602082015250565b7f4552433732313a20617070726f76652063616c6c6572206973206e6f7420746f60008201527f6b656e206f776e6572206e6f7220617070726f76656420666f7220616c6c0000602082015250565b7f4552433732313a206d696e7420746f20746865207a65726f2061646472657373600082015250565b7f4f776e61626c653a2063616c6c6572206973206e6f7420746865206f776e6572600082015250565b7f4552433732313a20696e76616c696420746f6b656e2049440000000000000000600082015250565b7f4552433732313a20617070726f76616c20746f2063757272656e74206f776e6560008201527f7200000000000000000000000000000000000000000000000000000000000000602082015250565b50565b7f4552433732313a2063616c6c6572206973206e6f7420746f6b656e206f776e6560008201527f72206e6f7220617070726f766564000000000000000000000000000000000000602082015250565b6003811061378a576137896132fc565b5b50565b613796816130aa565b81146137a157600080fd5b50565b6137ad816130bc565b81146137b857600080fd5b50565b6137c4816130d2565b81146137cf57600080fd5b50565b6137db8161313f565b81146137e657600080fd5b5056fea2646970667358221220a5fc27a18fa3167e512357e7375bdb68ec2cc2201278eaee6015d735087f4fb164736f6c63430008070033",
  "devdoc": {
    "kind": "dev",
    "methods": {
      "approve(address,uint256)": {
        "details": "See {IERC721-approve}."
      },
      "balanceOf(address)": {
        "details": "See {IERC721-balanceOf}."
      },
      "getApproved(uint256)": {
        "details": "See {IERC721-getApproved}."
      },
      "isApprovedForAll(address,address)": {
        "details": "See {IERC721-isApprovedForAll}."
      },
      "name()": {
        "details": "See {IERC721Metadata-name}."
      },
      "owner()": {
        "details": "Returns the address of the current owner."
      },
      "ownerOf(uint256)": {
        "details": "See {IERC721-ownerOf}."
      },
      "renounceOwnership()": {
        "details": "Leaves the contract without owner. It will not be possible to call `onlyOwner` functions anymore. Can only be called by the current owner. NOTE: Renouncing ownership will leave the contract without an owner, thereby removing any functionality that is only available to the owner."
      },
      "safeTransferFrom(address,address,uint256)": {
        "details": "See {IERC721-safeTransferFrom}."
      },
      "safeTransferFrom(address,address,uint256,bytes)": {
        "details": "See {IERC721-safeTransferFrom}."
      },
      "setApprovalForAll(address,bool)": {
        "details": "See {IERC721-setApprovalForAll}."
      },
      "supportsInterface(bytes4)": {
        "details": "See {IERC165-supportsInterface}."
      },
      "symbol()": {
        "details": "See {IERC721Metadata-symbol}."
      },
      "tokenURI(uint256)": {
        "details": "See {IERC721Metadata-tokenURI}."
      },
      "transferFrom(address,address,uint256)": {
        "details": "See {IERC721-transferFrom}."
      },
      "transferOwnership(address)": {
        "details": "Transfers ownership of the contract to a new account (`newOwner`). Can only be called by the current owner."
      }
    },
    "version": 1
  },
  "userdoc": {
    "kind": "user",
    "methods": {},
    "version": 1
  },
  "storageLayout": {
    "storage": [
      {
        "astId": 1005,
        "contract": "contracts/RandomIpfsNft.sol:RandomIpfsNft",
        "label": "_name",
        "offset": 0,
        "slot": "0",
        "type": "t_string_storage"
      },
      {
        "astId": 1007,
        "contract": "contracts/RandomIpfsNft.sol:RandomIpfsNft",
        "label": "_symbol",
        "offset": 0,
        "slot": "1",
        "type": "t_string_storage"
      },
      {
        "astId": 1011,
        "contract": "contracts/RandomIpfsNft.sol:RandomIpfsNft",
        "label": "_owners",
        "offset": 0,
        "slot": "2",
        "type": "t_mapping(t_uint256,t_address)"
      },
      {
        "astId": 1015,
        "contract": "contracts/RandomIpfsNft.sol:RandomIpfsNft",
        "label": "_balances",
        "offset": 0,
        "slot": "3",
        "type": "t_mapping(t_address,t_uint256)"
      },
      {
        "astId": 1019,
        "contract": "contracts/RandomIpfsNft.sol:RandomIpfsNft",
        "label": "_tokenApprovals",
        "offset": 0,
        "slot": "4",
        "type": "t_mapping(t_uint256,t_address)"
      },
      {
        "astId": 1025,
        "contract": "contracts/RandomIpfsNft.sol:RandomIpfsNft",
        "label": "_operatorApprovals",
        "offset": 0,
        "slot": "5",
        "type": "t_mapping(t_address,t_mapping(t_address,t_bool))"
      },
      {
        "astId": 1993,
        "contract": "contracts/RandomIpfsNft.sol:RandomIpfsNft",
        "label": "_tokenURIs",
        "offset": 0,
        "slot": "6",
        "type": "t_mapping(t_uint256,t_string_storage)"
      },
      {
        "astId": 874,
        "contract": "contracts/RandomIpfsNft.sol:RandomIpfsNft",
        "label": "_owner",
        "offset": 0,
        "slot": "7",
        "type": "t_address"
      },
      {
        "astId": 3165,
        "contract": "contracts/RandomIpfsNft.sol:RandomIpfsNft",
        "label": "s_requestIdToSender",
        "offset": 0,
        "slot": "8",
        "type": "t_mapping(t_uint256,t_address)"
      },
      {
        "astId": 3169,
        "contract": "contracts/RandomIpfsNft.sol:RandomIpfsNft",
        "label": "s_tokenCounter",
        "offset": 0,
        "slot": "9",
        "type": "t_uint256"
      },
      {
        "astId": 3175,
        "contract": "contracts/RandomIpfsNft.sol:RandomIpfsNft",
        "label": "s_dogTokenUris",
        "offset": 0,
        "slot": "10",
        "type": "t_array(t_string_storage)dyn_storage"
      }
    ],
    "types": {
      "t_address": {
        "encoding": "inplace",
        "label": "address",
        "numberOfBytes": "20"
      },
      "t_array(t_string_storage)dyn_storage": {
        "base": "t_string_storage",
        "encoding": "dynamic_array",
        "label": "string[]",
        "numberOfBytes": "32"
      },
      "t_bool": {
        "encoding": "inplace",
        "label": "bool",
        "numberOfBytes": "1"
      },
      "t_mapping(t_address,t_bool)": {
        "encoding": "mapping",
        "key": "t_address",
        "label": "mapping(address => bool)",
        "numberOfBytes": "32",
        "value": "t_bool"
      },
      "t_mapping(t_address,t_mapping(t_address,t_bool))": {
        "encoding": "mapping",
        "key": "t_address",
        "label": "mapping(address => mapping(address => bool))",
        "numberOfBytes": "32",
        "value": "t_mapping(t_address,t_bool)"
      },
      "t_mapping(t_address,t_uint256)": {
        "encoding": "mapping",
        "key": "t_address",
        "label": "mapping(address => uint256)",
        "numberOfBytes": "32",
        "value": "t_uint256"
      },
      "t_mapping(t_uint256,t_address)": {
        "encoding": "mapping",
        "key": "t_uint256",
        "label": "mapping(uint256 => address)",
        "numberOfBytes": "32",
        "value": "t_address"
      },
      "t_mapping(t_uint256,t_string_storage)": {
        "encoding": "mapping",
        "key": "t_uint256",
        "label": "mapping(uint256 => string)",
        "numberOfBytes": "32",
        "value": "t_string_storage"
      },
      "t_string_storage": {
        "encoding": "bytes",
        "label": "string",
        "numberOfBytes": "32"
      },
      "t_uint256": {
        "encoding": "inplace",
        "label": "uint256",
        "numberOfBytes": "32"
      }
    }
  }
}